:020000040800F2
:10000000100E00209D0100089B340008032C0008FE
:100010009934000841080008A139000800000000D8
:1000200000000000000000000000000095360008FD
:1000300065090008000000009D340008993600089A
:10004000B7010008B7010008B7010008B7010008B0
:10005000B7010008B7010008B7010008B7010008A0
:1000600067090008690900086B090008B701000862
:10007000B7010008B7010008B7010008B701000880
:10008000B7010008B7010008B701000851080008CF
:1000900045080008B7010008B7010008B7010008CB
:1000A000B7010008B7010008B7010008B701000850
:1000B0000D380008B7010008B7010008B7010008B3
:1000C000B7010008B7010008B7010008B701000830
:1000D000B7010008B70100089D3900089F390008E2
:1000E000B7010008B7010008B7010008B701000810
:1000F000B7010008B7010008B7010008B701000800
:10010000B7010008B7010008B7010008B7010008EF
:10011000B7010008B7010008B7010008B7010008DF
:10012000A9080008B5080008B7010008B7010008D1
:10013000B70100080000000000000000B70100083F
:100140005D080008B7010008B7010008B701000802
:10015000B7010008B7010008B7010008B70100089F
:10016000B7010008B7010008B7010008B70100088F
:10017000B7010008B70100080000000000000000FF
:10018000B7010008B7010008DFF80CD000F0F6F95D
:1001900000480047E53E0008100E00200648804752
:1001A00006480047FEE7FEE7FEE7FEE7FEE7FEE75C
:1001B000FEE7FEE7FEE7FEE7F137000889010008E9
:1001C0002DE9F05F0546002092469B46884606468C
:1001D000814640241BE0284641464746224600F01F
:1001E00060F953465A46C01A914110D31146184639
:1001F000224600F047F92D1A67EB01084F462246C8
:100200000120002100F03EF917EB00094E41201EAD
:10021000A4F10104DFDC484631462A464346BDE8E6
:10022000F09FD2B201E000F8012B491EFBD27047CB
:100230000022F6E710B513460A4604461946FFF7B2
:10024000F0FF204610BD2DE9FE4F81EA030404F0C3
:10025000004421F0004100944FF0000B23F00043D4
:1002600050EA01045ED052EA03045BD0C3F30A549F
:10027000C1F30A552C44A4F2F3340194A0FB0254B8
:10028000C1F3130141F48011C3F3130343F480134A
:1002900001FB024400FB034E840A970A44EA81549E
:1002A00047EA8357A4FB076802958D0A05FB07857B
:1002B0004FEA932C04FB0C542705029D4FEA065885
:1002C00047EA1637B5EB08056EEB070C870E920E62
:1002D00047EA811742EA8312A7FB0201B6EB0B0142
:1002E00064EB00042B0D43EA0C335E1844EB1C5006
:1002F000DA465146E7FB0201C5F313044FEA0B331C
:1003000043EA14534FEA0432019C43EA0603A4F182
:100310000C040294009CCDE900B400F0E1F803B0B5
:10032000BDE8F08F00200146F9E72DE9F04D81EAA4
:10033000030404F0004B21F0004514464FF0000A7E
:1003400023F0004150EA050220D054EA01021DD0FA
:10035000C5F30A570246C5F31303C1F31300C1F3F3
:100360000A5640F4801543F48013A7EB0608101BCF
:10037000D64608F2FD3873EB050002D308F10108F8
:1003800001E092185B41B8F1000F03DA002001464A
:10039000BDE8F08D00204FF48011064684460EE043
:1003A000171B73EB050705D3121B63EB050306430D
:1003B0004CEA010C49084FEA300092185B4150EAC0
:1003C0000107EDD152EA030012D082EA040083EA69
:1003D0000501084305D0101BAB4106D201220023C2
:1003E00006E000224FF0004302E06FF001025310DC
:1003F0001AEB06004CEB085110EB0A0041EB0B0125
:10040000BDE8F04D00F05DB80EB540F23341029109
:100410000021CDE900110A460B4600F061F803B057
:1004200000BDC1F30A5210B5C1F3130140F2FF330E
:1004300041F480119A4201DA002010BD40F23343AA
:100440009A42A2F2334203DC524200F02AF810BD75
:10045000904010BD30B5041E71F1000404DB4FF074
:100460000044404264EB0101141E73F1000405DBFB
:100470001C464FF00043524263EB0403994208BF0D
:10048000904230BD202A04DB203A00FA02F100201D
:1004900070479140C2F1200320FA03F319439040C2
:1004A0007047202A04DB203A21FA02F0002170472D
:1004B00021FA02F3D040C2F12002914008431946CC
:1004C000704710B5141E73F1000408DA401C41F1A6
:1004D000000192185B411A4301D120F0010010BDC8
:1004E0002DE9F04D92469B4611B1B1FA81F202E03E
:1004F000B0FA80F220329046FFF7C4FF04460F4660
:1005000040EA0A0041EA0B0153465A46084313D019
:10051000114653EA010019D0C8F140025046FFF7D6
:10052000C0FF05460E46504659464246FFF7AAFF11
:10053000084305D0012004E020463946BDE8F08D8F
:100540000020054346EAE0762C4337430A986305CA
:10055000E40AA0EB08000022FD0A44EA47540A30EE
:1005600002D500200146E9E7010510196941DDE9DE
:10057000084500196941BDE8F04DA2E7064C074D5A
:1005800006E0E06840F0010394E807009847103463
:10059000AC42F6D3FFF7FCFD2842000848420008B1
:1005A00010B50146806B026C12F0500F05D0026C42
:1005B000D20626D500F0EBFA10BD016C41F40071B3
:1005C000016401688A6812F0405F17D1027EAAB9FF
:1005D000CA6A12F4700F02D08A6852050ED44A68B3
:1005E00022F020024A60016C21F480710164016CE8
:1005F000C90403D4016C41F00101016400F05EFA0A
:1006000010BD806BC26CBDE810400846104710B5A5
:10061000806B40210164416C41F00401416400F0B1
:10062000B6FA10BD10B5806B00F0B0FA10BD000036
:10063000464910B54A6822F440324A604A68436825
:100640001A434A6001684A6822F480724A6001686D
:100650004A68036942EA03224A6001684A6822F054
:1006600040724A6001684A6883681A434A600168B8
:100670008A6822F400628A6001688A68C3681A4343
:100680008A60816A6FF07062D14201688A6822F0E4
:1006900070628A6001688A680CD0836A1A438A6033
:1006A00001688A6822F040528A6001688A68C36AD9
:1006B0001A4301E022F040528A6001688A6822F001
:1006C00002028A6001688A68037E42EA43028A6005
:1006D00090F82010002901684A680FD042F40062A7
:1006E0004A6001684A6822F460424A6001684A68C8
:1006F000174C436A04EB43331A4301E022F40062CF
:100700004A600168CA6A22F47002CA620168CA6A51
:10071000838B104C04EB03531A43CA6201688A6846
:1007200022F400728A6001688A6890F8303042EAE8
:1007300043228A6001688A6822F480628A600168C4
:100740008A68406942EA8020886010BD0023014029
:1007500000E0FFFF0000F0FF30B587B0062802D3AD
:10076000012007B030BD3148016841F0400101600F
:10077000016801F040010591016841F0400101600C
:10078000016801F040010591016841F040010160FC
:10079000016801F040010591016841F040010160EC
:1007A000016801F040010591016841F040010160DC
:1007B000016801F040010591016841F040010160CC
:1007C00000681B4D00F040000590012001900220C0
:1007D00002900390082000906946284600F0D8FE59
:1007E000102000906946284600F0D2FE2024694679
:1007F0002846009400F0CCFE402000906946284630
:1008000000F0C6FE802000906946284600F0C0FE39
:10081000E00000906946284600F0BAFE6946284686
:10082000009400F0B5FE00209BE700003038024045
:1008300000180240062801D30120704702207047AB
:10084000FEE70000014800F092BB00000C0300200E
:10085000014800F08CBB00000C030020014800F0B0
:1008600086BB00003403002010B50E4C0C480C2150
:1008700020604FF4E13060600020A060E060206103
:10088000C4E90510E061204602F0EFF808B100F07D
:100890006DF82068C16841F02001C16010BD000002
:1008A00000440040CC000020014800F0FFBC0000E4
:1008B0004C020020014800F0F9BC0000AC0200200E
:1008C00001681823CAB2103AB2FBF3F2054B6FF37A
:1008D0000901032A9B5CC36500D9091D816508468F
:1008E000704700000842000810B5014600208B69DF
:1008F0008A6A4FF0C07453B1B3F5005F15D072B17E
:10090000012A0CD0022A0AD0032A09D104E01AB124
:10091000012A06D0022A03D1C96AC90100D50120E3
:1009200010BDC96AA142FAD010BD002AF7D0012A31
:10093000F2D0022AF3D0032AF3D010BD30B50468F8
:10094000256825F480252560046863608368402B52
:10095000036803D099600068C26030BD9A60006887
:10096000C16030BD704770477047704770470000E6
:1009700078B50024009490F83C20012A19D0012277
:1009800080F83C200A6807230568092A13D9EE6815
:100990000A3A02EB420293409E43EE600B788A686B
:1009A0000A3B03EB43039A400368DD682A43DA609D
:1009B00010E0022078BD2E6902EB420293409E4374
:1009C0002E610B788A6803EB43039A4003681D6924
:1009D0002A431A614A681F23072A13D205686E6BDF
:1009E000521E02EB820293409E436E630B790A888B
:1009F0005B1E92B203EB83039A4003685D6B2A434C
:100A00005A6327E005680D2A12D22E6BD21F02EB23
:100A1000820293409E432E630B790A88DB1F92B2B9
:100A200003EB83039A4003681D6B2A431A6311E0AA
:100A3000EE6A0D3A02EB820293409E43EE620B791E
:100A40000A880D3B92B203EB83039A400368DD6A88
:100A50002A43DA62164B0568144A9D4206D10D6896
:100A6000122D03D1556845F48005556005689D42F7
:100A700018D10B68102B01D0112B13D1536843F4FC
:100A800000035360096810290CD10A490A4A096811
:100A9000B1FBF2F101EB8101490000E0491E009138
:100AA0000029FBD180F83C40002078BD00230140A4
:100AB000002001402800002040420F0070B52B4A62
:100AC00000232B49904226D12A4C2B4A002000BFFC
:100AD00052F8205034F81060354442F82050401C41
:100AE00080B20928F4D308888C88A0420FD3002054
:100AF000224D641C52F82060B6FBF4F625F8106015
:100B000042F82030401C80B20928F3D30B800888BB
:100B1000401C088070BD154A48329042FAD1184CEA
:100B20001848002250F8225034F81260354440F83A
:100B30002250521C92B20A2AF4D34A888C88A242CC
:100B40000FD30022104E641C50F82250B5FBF4F570
:100B500026F8125040F82230521C92B20A2AF3D3DF
:100B60004B804888401C488070BD0000BC010020BC
:100B70000A0000203000002058000020A4000020BF
:100B8000420000207C000020B60000207047704723
:100B900070B504004FF0000503D0206C002610B1A2
:100BA00007E0012070BD204600F01CF8666484F860
:100BB0003C60206CC00610D4206C20F4885040F0BB
:100BC000020020642046FFF733FD6664206C20F0AD
:100BD000020040F00100206400E0012584F83C6040
:100BE000284670BD2DE9F04F87B0064614216846AF
:100BF000FFF71EFB4F484E4B1438326800244D4916
:100C00000325DFF834B107154FF400684FF400599D
:100C10004FF4807A9A4248D10A6842F480720A609E
:100C2000096801F480710591016841F004010160D7
:100C3000016801F004010591016841F001010160C2
:100C4000016801F001010591016841F002010160B4
:100C50000068694600F0020005903B20CDE90005E0
:100C60000294364800F094FCA020CDE900056946C6
:100C70000294584600F08CFC0095CDE90154694679
:100C80002F4800F085FC304D2E4805F10C02C5E9D7
:100C90000004AC6082E890072C6228466C6240E059
:100CA000B563AE6307B0BDE8F08F284B9A42F9D127
:100CB0000A6842F480620A60096801F48061059163
:100CC000016841F020010160016801F020010591F7
:100CD000016841F0010101600068694600F001000F
:100CE00005904FF4FF60CDE900050294184800F02C
:100CF0004FFC0C20CDE9000569460294584600F0EF
:100D000047FC114D0F486035183028604FF0806067
:100D1000C5E9010405F10C02284682E890072C621F
:100D20006C6200F093FB0028BAD0FFF71FFEB7E714
:100D30000020014044380240000002400008024008
:100D400000040240106402404C02002000220140D6
:100D500000140240F8B50E4600210446009190F8B8
:100D60003C00012807D0012084F83C0020688368FB
:100D7000DB0702D011E00220F8BD836843F00103D5
:100D800083603748374B0068B0FBF3F000EB40005E
:100D900000E0401E00900028FBD120688368DB073C
:100DA0005CD0236C40F20165AB4343F48073236451
:100DB0004068400505D5206C20F4005040F4805078
:100DC0002064206CC00404D5606C20F006006064D0
:100DD00000E0616484F83C10A16B2448224DC86394
:100DE000A16B23480864A16B2248C86421686FF096
:100DF000220008602068416841F0806141602068FD
:100E0000816841F4807181602168134632464C311B
:100E1000A06B00F085FB68681749C006206806D003
:100E200088421BD1816811F0405F13D016E08842E0
:100E3000F8D0124A904203D1D1F80423D206F1D05F
:100E40000F4A90420AD1D1F8041301F01F01102972
:100E5000E8D303E0816841F0804181600020F8BD63
:100E60002800002040420F0000230140A105000897
:100E7000250600080F06000800200140002101405F
:100E800000220140704730B590F82040012C05D079
:100E9000022C03D0416A41F480215DE004680029FE
:100EA00055D02469A40754D04FF4D874056804EBD6
:100EB00001142D5915F00405956005682D594ED083
:100EC000ED08556005682C5904F00204D4604FF415
:100ED000DA74056804EB01142D5905F00F0515614E
:100EE00005682D59C5F30725956105682C59240C13
:100EF00054614FF4DC72046802EB0112A4581C70B8
:100F00000468A458240A5C700468A458240C9C70DB
:100F10000468A258120EDA704FF4DE72046802EB15
:100F20000112A4581C710468A458240A5C71046856
:100F3000A458240C9C710468A258120EDA7100683F
:100F400081B1016941F020010161002030BDE468F8
:100F5000A8E7416A41F400114162012030BD6D0DE6
:100F60001560AFE7C16841F02001C160EDE72DE9F0
:100F7000F05F0546006800244669D0F80490876851
:100F8000D0F80CB0D0F810A0D0F81880F10748D0F5
:100F9000F90714D001218160B80703D5284600F075
:100FA000EFF80CE0780702D54FF4006407E038074B
:100FB00002D54FF4805402E0284600F0DFF8F8052F
:100FC00016D529684FF480708860B80503D5284687
:100FD00000F0E0F80CE0780502D544F4005407E096
:100FE000380502D544F4804402E0284600F0D0F8E9
:100FF000F80316D529684FF480308860B80303D50C
:10100000284600F0D1F80CE0780302D544F40044FF
:1010100007E0380302D544F4803402E0284600F0AB
:10102000C1F8300707D55FEACB6004D529681020E6
:1010300044F40074C86070074FF0080707D55FEAF2
:101040000B7004D52868C760284600F08EF8B007FA
:1010500006D52868C068800702D0284600F086F8C8
:10106000700607D55FEACA6004D52968102044F4E9
:1010700080640861B00607D55FEA0A7004D5286865
:101080000761284600F075F8F00606D52868006963
:10109000800702D0284600F06DF8B00308D55FEA5B
:1010A000C96005D5296810204860284600F065F819
:1010B000F00307D55FEA097004D528684760284621
:1010C00000F07AF8300446D55FEA497040D5F00563
:1010D00004D55FEAC87001D044F00104B00504D51E
:1010E0005FEA887001D544F00204700504D55FEA18
:1010F000487001D544F00404300529D518F0700F6C
:1011000026D008F07000402815D006DC102809D041
:1011100020280AD0302816D10AE050280ED06028A6
:1011200011D10EE044F008040DE044F010040AE090
:1011300044F0200407E044F0400404E044F080045C
:1011400001E044F480742868816921F070018161B4
:10115000296804204860002C05D0686A2043686232
:101160002846FFF78FFEBDE8F09F7047002102F090
:10117000BBBF7047012102F0B7BF70477047000046
:1011800002480168491C01607047000010000020FF
:101190007047000002480168491C01607047000068
:1011A000100000207047000002480168491C0160DF
:1011B0007047000010000020704770B54379012B84
:1011C0001AD0012646710223037105682C6840F687
:1011D000FE7393409C43D1E900310B43934023437A
:1011E0002B6001680B68C0249440A3430B60067118
:1011F00000214171084670BD022070BD70B5040029
:1012000003D02079002510B105E0012070BD657183
:10121000204600F007F8022020712561012020718E
:10122000002070BD704718B5046800940068104431
:1012300021B1143000900360002018BD0830F9E798
:1012400030B54279012A16D001224271022303717E
:1012500003681D6802FA01F425431D600029016836
:101260000B680AD00C6803F4802304F46014B3F50F
:10127000802F0FD015E0022030BD0C6803F004036E
:1012800004F03804042B0CD1382C0AD14B6843F0FD
:10129000010305E0B4F5601F03D14B6843F002037E
:1012A0004B60027100214171084630BD2DE9F843C1
:1012B00004464FF00009CDF8009063484FF41651F2
:1012C000A56D0068B0FBF1F72E6894F85C1008205B
:1012D00000FA01F131420FD021680A6852070BD59C
:1012E0000A6822F004020A6094F85C108840A86042
:1012F000606D40F00100606594F85C104FF00108EB
:1013000008FA01F0304208D021684969090604D57D
:10131000A860606D40F00200606594F85C100420E5
:101320008840304208D021680968890704D5A86040
:10133000606D40F00400606594F85C1010208840F7
:10134000304218D021680968090714D5A8602068C0
:101350000168490304D50068000308D5A16C07E0C3
:101360000168C90503D4016821F008010160216CFE
:1013700009B12046884794F85C102020884030420C
:1013800031D021680968C9062DD5A86094F83500C8
:1013900005282068016806D0490347D50068000386
:1013A0001DD4616C1CE021F01601016020684169C8
:1013B00021F080014161206C08B9A06C20B1206847
:1013C000016821F00801016094F85C103F2088401A
:1013D000A86084F8349084F83580216D1FE0E16BBB
:1013E00009B120468847606D00282BD0606DC0078A
:1013F00014D0052084F835002068016821F001012F
:1014000001600098401C0090B84203D82068006832
:10141000C007F6D184F8349084F83580E16C002957
:1014200010D001B02046BDE8F04308470168C90567
:10143000D5D4016821F01001016084F8349084F85B
:101440003580CCE7BDE8F883280000202DE9F04185
:10145000044600F079F906465CB1002584F8345062
:10146000022084F835002068016821F00101016044
:101470000DE00120BDE8F08100F066F9801B052831
:1014800005D920206065032084F83500F2E7206844
:101490000068C007F0D12268116820480140D4E9F3
:1014A00001031843D4E903363343184363691843EF
:1014B000A3691843E3691843236A18430843616A20
:1014C000042903D1D4E90B131943084310602068A1
:1014D0004069666A20F0070130460E430127042860
:1014E0000CD1A06A0643E06A40B12046FFF7FCF940
:1014F00020B14020606584F83570BAE72068466105
:101500002046FFF7DDF994F85C203F21914081608F
:10151000656584F835700020ACE700003F8010F06E
:101520002DE9F0410446866D90F83400002501282D
:101530000DD0012084F8340094F835700020012F7C
:1015400007D084F8340002252846BDE8F081022047
:10155000FBE7022784F8357060652046FFF7EEF957
:1015600094F85C103F208840B0602068016841F02A
:1015700016010160206C20B12068016841F008016B
:1015800001602068016841F001010160DCE70000B2
:101590002DE9F84F00224FF0010803254FF00F0E00
:1015A0000B6808FA02F42340A3426ED14E68012E64
:1015B00005D0022E03D0112E01D0122E12D1866832
:1015C0004FEA420C05FA0CF7BE43CF6807FA0CF756
:1015D000374387604668A6430C79C4F300149440EF
:1015E00034434460C668570005FA07FC8C6826EA55
:1015F0000C06BC403443C4604C68022C01D0122C51
:1016000013D1D40800EB8404A346D4F820905407E7
:101610004FEAD46A0EFA0AF629EA06090E6906FAB2
:101620000AF646EA0906CBF8206006680C7926EA35
:101630000C0604F00304BC40344304604C68E4002E
:1016400065D5364C266846F480462660246822F02C
:10165000030604F480440094314C3444A446D4F886
:1016600008489607370F0EFA07F6B4432D4EB042DE
:1016700001D1002624E02C4EB04201D101261FE00A
:101680002A4EB04202D102261AE040E0284EB04273
:1016900001D1032614E0274EB04201D104260FE009
:1016A000254EB04201D105260AE0244EB04201D1B8
:1016B000062605E0224EB04201D1072600E00826AA
:1016C000BE402643CCF808681E4E34684F689C43E1
:1016D000FF0300D51C4334601A4C241D26684F6854
:1016E0009E43BF0300D51E432660164E083634685D
:1016F0004F689C43FF0200D51C433460114E0C36EA
:1017000034684F689C43BF0200D51C433460521CB0
:10171000102AFFF445AFBDE8F88F000044380240BE
:101720000030014000000240000402400008024076
:10173000000C024000100240001402400018024059
:10174000001C0240003C01400148806870470000D6
:101750001C00002090F83D007047000070B50400A8
:1017600025D094F83D00002520B984F83C5020464F
:1017700000F002FB242084F83D002068016821F07D
:10178000010101602068016841F4004101602068A6
:10179000016821F40041016000F066FC4D4A616877
:1017A000914201D84C4900E04C49884201D20120C5
:1017B00070BD4B492368B0FBF1F15E6826F03F062F
:1017C0000E435E606368934206D94FF496735943A3
:1017D0004FF47A73B1FBF3F12368491C1E6A26F0BB
:1017E0003F06314319626168914210D84900401E9A
:1017F000B0FBF1F2521CC2F30B02042A01D2042006
:1018000022E0B0FBF1F0401CC0F30B001CE0A2682A
:10181000F2B301EBC10303EB0116431EB3FBF6F376
:101820005B1C43F480431B0549D092B301EBC1021A
:1018300002EB0111401EB0FBF1F0401CC0F30B00A5
:1018400040F4804040F400402168CA694CF6FF73C0
:101850009A431043C861D4E9071001432068026825
:1018600022F0C00211430160D4E903010143206862
:10187000826848F2FF339A4311438160D4E905013D
:1018800008432168CA6822F0FF021043C86001E0E3
:101890000EE016E02068016841F001010160256456
:1018A000202084F83D00256384F83E50002070BD60
:1018B00001EB4106431EB3FBF6F35B1CB3E70120CB
:1018C000C2E701EB4101401EB0FBF1F0401CC0F348
:1018D0000B00B7E7A086010080841E0000093D00D0
:1018E00040420F002DE9FF4F81B089460446FFF7C3
:1018F0002BFF054694F83D004FF0010820287DD1CC
:101900001923012250492046009501F0D5FA0028FC
:1019100074D194F83C00012870D0012084F83C0078
:1019200020680168C90703D1016841F00101016025
:101930002068016821F400610160242084F83D00E2
:10194000002626644148E0624FF0011B20272068F2
:10195000016841F4807101600095002259462046DB
:10196000049B01F0A9FA50B120680068C00502D5B7
:101970004FF400702064032005B0BDE8F08F2168AB
:1019800009F0FE000861FFF7DFFE2168054648699F
:101990004969C0F34000C1F380214FF0A00A0FE075
:1019A000FFF7D2FE411B0498814200D808B984F8A1
:1019B0003DA0216848694969C0F34000C1F3802116
:1019C00094F83D20A02A02D008B90029E8D084F874
:1019D0003D7020684169C943890716D4016841F404
:1019E000007101602068416980691923012216494C
:1019F0002046009501F060FAB8B900E021E084F8D3
:101A00003D7084F83C600020B6E7016841F4007145
:101A1000016021686FF480604861192301220A493E
:101A20002046009501F048FA08B10120A4E7039888
:101A300008F1010880458AD384F83D7084F83C6041
:101A4000F3E7022098E70000020010000000FFFF0B
:101A50002DE9FF4F83B09A46DDE91197934604467E
:101A6000DDF84080FFF770FE054694F83D00202821
:101A700070D11923012271492046009501F01CFA0A
:101A80000028F5D194F83C00012863D0012084F8A7
:101A90003C0020680168C90703D1016841F00101D9
:101AA00001602068016821F400610160222084F84F
:101AB0003D00402084F83E0000262664C4F82480BF
:101AC000A4F82A90608D20855D48E062CDE900751C
:101AD00053465A462046049901F0F6F800287CD176
:101AE000208DD0B1012821D00228206824D041695E
:101AF00080690090208D032869D801282BD0514996
:101B000002283B464FF00002009559D088462046F7
:101B100001F0D2F9002860D13CE020684169816978
:101B20000091016841F40071016077E0206801686C
:101B300021F480610160F0E7016821F480610160B7
:101B40002068016841F40061016020684169806992
:101B5000009063E06FE02A463946204601F02BFAF8
:101B600098BB20680069616A08704EE020680168CF
:101B700041F40071016020680069616A0870606A60
:101B8000401C6062218D491E2185618D491E618541
:101B9000216838E02068016821F4806101602068D4
:101BA0000069616A0870606A401C6062208D401E96
:101BB0002085608D401E60853B4600224146009591
:101BC000204601F079F900B9D0E706E0FFE72A46A0
:101BD0003946204601F0EFF918B1012007B0BDE801
:101BE000F08F20680069616A0870606A401C60625A
:101BF000218D491E2185618D491E618521684A69B3
:101C0000D24352070AD409690170606A401C6062BD
:101C1000208D401E2085608D401E6085208D00280F
:101C20007FF468AF202084F83D0084F83E6084F89B
:101C30003C600020D2E70220D0E700000200100044
:101C40000000FFFF040001002DE9FF4F83B09A461A
:101C5000DDE9119793460446DDF84080FFF774FDF7
:101C6000054694F83D0020287FD1192301224049E0
:101C70002046009501F020F9002876D194F83C0028
:101C8000012872D0012084F83C0020680168C9074F
:101C900003D1016841F0010101602068016821F46D
:101CA00000610160212084F83D00402084F83E005E
:101CB00000262664C4F82480A4F82A90608D20852C
:101CC0002C48E062CDE9007553465A4620460499F7
:101CD00001F078F870B930E02A463946204601F024
:101CE0009DF958B1206C042804D12068016841F4A2
:101CF00000710160012007B0BDE8F08F606A2168C3
:101D000000780861606A401C6062218D491E89B2BA
:101D10002185628D521E628522685369DB435B0711
:101D20000BD469B100781061606A401C6062208D3C
:101D3000401E2085608D401E6085208D0028CBD1FF
:101D40002A463946204601F091F80028CAD154F8B5
:101D50003D0B016841F400710160202004F81E0968
:101D6000E67766770020C6E7FFE70220C3E70000BA
:101D7000020010000000FFFF30B51F4887B00021AF
:101D8000026842F002020260026802F0020205925A
:101D9000026842F002020260006800F00200059052
:101DA00015481030026842F40012026000680424F2
:101DB00000F4001005904FF4807000901220CDE9DF
:101DC00001010220CDE903040C4D69462846FFF7C6
:101DD000DFFBE0010090694604942846FFF7D8FB3A
:101DE00005481038016841F400110160016821F4D0
:101DF0000011016007B030BD3038024000040240DD
:101E00000248816802781144816070471C000020FC
:101E10000B4810B5016841F400710160016841F49C
:101E200080610160016841F480710160032000F06D
:101E30006FF8002000F006F800F024F8002010BD34
:101E4000003C024070B50D4D04464FF47A7128787D
:101E5000B1FBF0F00A490968B1FBF0F000F0F1FDC8
:101E600048B9102C07D200222146501E00F030F84D
:101E700000206C6070BD012070BD00001C000020BF
:101E8000280000200A4808B5016841F4804101603B
:101E9000006800F4804000900548001F016841F090
:101EA00080510160006800F08050009008BD000083
:101EB00044380240002809DB00F01F020121914054
:101EC0004009800000F1E020C0F8001170470000D8
:101ED000F0B40E4B1B680C46C3F30223C3F1070595
:101EE000042D00D90425191D072901D2002300E083
:101EF000DB1E012606FA05F1491E214099409E404D
:101F0000761E16403143F0BC01F05CBD0CED00E0E4
:101F1000064900F0070208684FF6FF03184040EA40
:101F20000220034A10430860704700000CED00E0F7
:101F30000000FA052DE9F0470E46050065D0DFF8F0
:101F40001481D8F80000F7B200F00F00B04207D2B9
:101F500088F80070D8F8000000F00F00B04254D1AB
:101F600028683D4C810712D5400703D5206840F40E
:101F7000E05020602878000703D5206840F46040D6
:101F800020602068A96820F0F000084320602878CD
:101F9000C0072DD0304968680839012812D00228BE
:101FA00013D0032811D00968890700292DDA216888
:101FB00021F0030101432160FFF7C6FB814641F296
:101FC000883A0EE009688903EFE709688901ECE7C0
:101FD000FFF7BAFBA0EB0901514502D90320BDE888
:101FE000F0872068696800F00C00B0EB810FEFD13A
:101FF000D8F80010404601F00F01B14207D9077030
:10200000006800F00F00B04201D00120E7E7287817
:10201000400705D52068E96820F4E05008432060B7
:102020002878000706D52068296920F4604040EA36
:10203000C100206000F038F82168084AC1F303119C
:10204000515CC8400649086006480068FFF7FAFE80
:102050000020C4E7003C024008380240104200085B
:102060002800002020000020044805490068096875
:10207000044AC1F38221515CC84070472800002007
:1020800008380240204200080448054900680968F1
:10209000044AC1F34231515CC84070472800002017
:1020A0000838024020420008154810B5006810F0BA
:1020B0000C02144813D04110042A0FD0082A0ED164
:1020C0000F4C241F2268236802F03F025B0207D5F1
:1020D0002068C0F38810A0FB010106E0084610BD8F
:1020E0002168C1F38811A1FB00010023FEF768F805
:1020F0002168C1F30141491C4900B0FBF1F010BD5A
:10210000083802400024F4002DE9F84F04006ED096
:102110002078DFF83C93C007A9F104054AD009F103
:1021200004000168C1F38101012908D00068C0F3EF
:10213000810002280AD1D9F80000400206D528689B
:10214000800337D560680028E1D033E06068B0F5DF
:10215000803F10D0B0F5A02F286810D020F4803038
:102160002860286820F4802028606068A8B1FFF704
:10217000EBFA06460DE0286840F48030F4E740F4BE
:1021800080202860F7E700BFFFF7DEFA801B642895
:1021900073D828688003F7D50CE0FFF7D5FA064618
:1021A00005E000BFFFF7D0FA801B6428F0D828684C
:1021B0008003F7D42078DFF89C8280074FF0000A74
:1021C0003ED5A348001D016811F00C0F08D000682F
:1021D000C0F3810002280BD1D9F80000400207D4D7
:1021E0002868800716D5E068012800D112E02BE1AD
:1021F000E068B8B10120C8F80000FFF7A5FA06466C
:1022000005E000BFFFF7A0FA801B0228C0D82868AD
:102210008007F7D52868216920F0F80040EAC1005E
:1022200028600DE0C8F800A0FFF78EFA064604E02B
:10223000FFF78AFA801B02281FD828688007F7D486
:102240002078000722D5824E83486169703671B1CB
:1022500001210160FFF778FA074604E0FFF774FAFE
:10226000C01B022809D830688007F7D50EE0C0F8F7
:1022700000A0FFF769FA074605E082E0FFF764FA7D
:10228000C01B02287DD830688007F7D4207840072B
:1022900068D5DFF8BCB100270BF13C0BDBF8000080
:1022A000C0000BD4DBF8001041F08051CBF80010D7
:1022B000DBF80000012700F080500090674E306886
:1022C000C00510D4306840F480703060FFF73CFAED
:1022D000009005E0FFF738FA0099401A022850D81C
:1022E0003068C005F6D55A4EA0686C3601280FD06C
:1022F0000528306810D020F001003060306820F0F0
:1023000004003060A068B8B1FFF71EFA00900FE03B
:10231000306840F00100F4E740F004003060F7E777
:10232000FFF712FA0099411A41F28830814266D8CB
:1023300030688007F4D50EE0FFF706FA009007E05A
:10234000FFF702FA0099411A41F28830814256D8CB
:1023500030688007F4D42FB1DBF8001021F08051F1
:10236000CBF80010A069C8B33949091D0968C1F349
:10237000810102294AD00228504607D0C8F86000DF
:1023800000E03CE0FFF7E0F904463BE04746C8F8D0
:102390006000FFF7D9F9064605E000BFFFF7D4F962
:1023A000801B02282BD828688001F7D4D4E90701C4
:1023B0000843A16A2A4A490802EB0141626A41EADC
:1023C0008211084394F82C1040EA0161C9F800100A
:1023D00001203866FFF7B8F9044606E036E000BF92
:1023E000FFF7B2F9001B022809D828688001F7D549
:1023F0002CE000BFFFF7A8F9001B022802D9032038
:10240000BDE8F88F28688001F4D41FE00128F7D0D8
:10241000D9F80000E26900F48001914214D1226AE7
:1024200000F03F0191420FD147F6C071626A01404E
:10243000914209D1A26A00F44031914204D1E16A8B
:1024400000F07060884201D00120D9E70020D7E772
:102450000438024000004742800E474200700040AE
:102460000000FFFF70B5040005D00025A56294F8B8
:10247000510010B106E0012070BD84F85050204694
:1024800000F030F8022084F851002068016821F043
:1024900040010160D4E901010843D4E9031211436A
:1024A000084361690843218B01F400710843E16925
:1024B0000843216A0843A16A084321680860A069AB
:1024C000042101EA1040616A0843216848602068DD
:1024D000C16921F40061C1616565012084F8510082
:1024E000002070BDF0B587B0044614216846FDF7A2
:1024F0009FFE2C492A4F236800242A4A10390225BE
:1025000003262948BB422BD1136843F48043136050
:10251000126802F4804205920A6842F004020A60DE
:102520000A6802F0040205920A6842F002020A6098
:10253000096802AB01F0020105910421CDE9001503
:10254000052783E8D0006946FFF722F84FF40440DE
:10255000CDE9000502AB694683E8D00013481BE0D3
:10256000134FBB421AD1136843F40043136012683F
:1025700002F4004205920A6842F004020A60096807
:10258000029401F0040105914FF4E051CDE90015EA
:102590000621CDE903616946FEF7FAFF07B0F0BDF9
:1025A0000038004040380240000802400004024069
:1025B000003C00402DE9F84F04464068002598464D
:1025C00016460F464FF0040BB0F5827F01D1A0688C
:1025D00088B194F85000012818D0012084F85000E8
:1025E000FFF7B2F8814694F851004FF0000A012835
:1025F0000ED002257DE084F851B013460A462046ED
:10260000CDF8008000F02CF9BDE8F88F0220FBE740
:10261000002F6DD0002E6BD084F851B0C4F854A0B8
:10262000A763A687E687C4F830A0A4F834A0A4F86E
:1026300036A0C4F840A0C4F844A0A068B0F5004F8C
:1026400004D12068016821F480410160206801689C
:10265000490603D4016841F040010160E068D8B147
:1026600039E020688168C90709D0007BA16B087038
:10267000A06B401CA063E08F401EE0870CE0FFF7DA
:1026800063F8A0EB0901414503D3B8F1FF3F03D044
:1026900036E0B8F1000F33D0E08F0028E1D11DE023
:1026A00020688168C90709D0C068A16B0880A06B49
:1026B000801CA063E08F401EE0870CE0FFF744F829
:1026C000A0EB0901414503D3B8F1FF3F03D017E068
:1026D000B8F1000F14D0E08F0028E1D14A464146FE
:1026E000204600F0DCFE08B120206065606D00B17E
:1026F0000125012084F8510084F850A0284683E782
:102700000325F6E72DE9F84F044690F8500000271E
:102710001D461646894601280DD04FF0010B84F85E
:1027200050B0FFF711F8804694F85100BA460128DE
:1027300004D002278EE00220BDE8F88FB9F1000F27
:102740007DD0002E7BD0032084F85100C4F854A023
:10275000C4F83090A686E686C4F838A0A4F83CA059
:10276000A4F83EA0C4F844A0C4F840A0A068B0F506
:10277000004F04D12068016841F480410160206865
:102780000168490603D4016841F040010160E06836
:10279000B0F5006F606803D030B3012E24D040E064
:1027A00008B1012E1CD1206B21680088C86006E0AA
:1027B00020688168890709D5216B0988C160206B71
:1027C000801C2063E08E401EE08609E0FEF7BCFF1F
:1027D000A0EB0800A84202D3681C01D031E07DB311
:1027E000E08E0028E4D11FE0206B21680078087398
:1027F00006E020688168890709D5216B0978017393
:10280000206B401C2063E08E401EE08609E0FEF74E
:102810009BFFA0EB0800A84202D3681C01D010E087
:1028200075B1E08E0028E4D142462946204600F0EA
:1028300065FE08B120206065A06820B107E008E0CF
:10284000FFE7032706E02068C16880680090606D9C
:1028500000B1012784F851B084F850A038466BE7E6
:102860002DE9F84F044690F8500000270A9E1D46B7
:1028700092468B464FF0010901280ED0012084F8C2
:102880005000FEF761FF804694F85100616801280E
:102890000CD0B1F5827F07D102E00220BDE8F88FAD
:1028A000A16809B9042801D00227C2E0BBF1000FDA
:1028B00027D0BAF1000F24D01DB394F8510004289A
:1028C00002D0052084F8510000206065C4F838A0CB
:1028D000E587A587C4F830B0E586A58620646064E6
:1028E00020680168490603D4016841F04001016095
:1028F000E068B0F5006F606805D0E8B3012D46D000
:102900007FE0012795E008B1012D39D1206B2168C6
:102910000088C860206B801C2063E08E401EE0862B
:102920002EE02068816889070FD5E18E69B1B9F181
:10293000010F0AD1216B0988C160206B801C2063C4
:10294000E08E401EE0864FF0000920688168C907CC
:102950000CD0E18F51B1C068A16B0880A06B801CC6
:10296000A063E08F401EE0874FF00109FEF7ECFE08
:10297000A0EB0800B04200E009E001D3701C50D188
:10298000E08E0028CDD1E08F0028CAD13FE0206B37
:10299000216800780873206B401C2063E08E401E85
:1029A000E0862EE02068816889070FD5E18E69B145
:1029B000B9F1010F0AD1216B09780173206B401C1A
:1029C0002063E08E401EE0864FF000092068816899
:1029D000C9070CD0E18F51B1C068A16B0870A06B22
:1029E000401CA063E08F401EE0874FF00109FEF716
:1029F000ABFEA0EB0800B04202D3701C01D010E087
:102A00007EB1E08E0028CDD1E08F0028CAD14246A9
:102A10003146204600F072FD28B101272020606574
:102A200007E0032705E0A06818B92068C16880683E
:102A30000090012084F85100002084F850003846AE
:102A40002CE710B5401EB0F1807F01D3012010BDEE
:102A50004FF0E02460610F21601700F0B3FF002009
:102A6000A06107202061002010BD70B5040004D0D3
:102A700094F83900002510B106E0012070BD84F8FB
:102A80003850204600F022F8242084F839002068CD
:102A9000C16821F40051C160204600F0B9FE2068F1
:102AA000016921F4904101612068416921F02A0106
:102AB00041612068C16841F40051C160E563202094
:102AC00084F8390084F83A00002070BD00B587B062
:102AD00014216846FDF7ACFB1948016841F4003148
:102AE0000160006800F40030059015481038016856
:102AF00041F001010160016801F0010105910168E7
:102B000041F0010101600068694600F00100059094
:102B10000C200090022001900120029003200390DD
:102B2000072004900748FEF733FD002204212620E9
:102B3000FFF7CEF92620FFF7BDF907B000BD000072
:102B400040380240000002402DE9F843044690F866
:102B500039001F4616460D46202850D1B5B1AEB1FA
:102B600094F8380001284AD0012084F838004FF04A
:102B70000008C4F83C80212084F83900FEF7E4FD09
:102B8000A6848146E68484F8388026E00120BDE8EA
:102B9000F883E08C401EE084A0684B46B0F5805F6F
:102BA0004FF000024FF080012046009703D000F064
:102BB000C3FEE8B90DE000F0BFFEC8B9288821685F
:102BC000C0F308004860206908B16D1C05E0AD1C29
:102BD00003E0216815F8010B4860E08C0028D8D18B
:102BE0004B46002240212046009700F0A5FE08B188
:102BF0000320CCE7202084F839000020C7E702201A
:102C0000C5E7FEE70EB54FF47A738DE80D000A466E
:102C10000123A0210148FEF71BFF0EBDB8090020CB
:102C2000094808490160091401610849416000210F
:102C300041618160C1610A220162C2608161FEF767
:102C40008DBD000000540040B8090020801A060025
:102C50003EB564238DE80D000A460123A0210D48EE
:102C6000FEF7F2FF04460B48FEF774FD2028FAD168
:102C70004FF496752A462B46A0210648FEF732FEF1
:102C80000328F7D00348FEF765FD2028FAD1204637
:102C90003EBD0000B809002001684A69D2435205D0
:102CA0000FD46FF480624A61002140F8301F202267
:102CB00042738173026942F00402026101730120D0
:102CC00070470020704700002DE9F84F0446006867
:102CD00089460B9D01689846174641F48061016062
:102CE0002068016841F48071016000954FF0011B7C
:102CF0000022594620460A9B00F0DEF84FF4007A85
:102D000040B120680068C00501D5C4F840A0032088
:102D1000BDE8F88F216809F0FE0008612B462849BC
:102D200020460A9A00F0FCF8F0BB206841698069EF
:102D300000902A4620460A9900F070F940B1206CB4
:102D400004283AD12068016841F40071016034E040
:102D5000FEB2B8F1010F09D02168380A08612A468D
:102D600020460A9900F05AF90028E8D12068066147
:102D70002A4620460A9900F051F90028DFD1206840
:102D8000016841F480710160009500225946204697
:102D90000A9B00F091F80028B3D1216809F0FF00E8
:102DA00040F00100086100E007E02B46044920469E
:102DB0000A9A00F0B5F80028AAD00120A8E7000080
:102DC000020001002DE9F843044600680D46DDE9E4
:102DD000089701689846164641F4807101604B4699
:102DE00000224FF001112046009700F065F848B12D
:102DF00020680068C00502D54FF4007020640320ED
:102E0000BDE8F883216805F0FE0008613B464A46AC
:102E10001549204600F084F888B920684169806926
:102E200000903A464946204600F0F8F848B1206C38
:102E3000042804D12068016841F400710160012078
:102E4000DEE7F5B2B8F1010F09D02168300A086158
:102E50003A464946204600F0E1F80028E7D12068CC
:102E600005610020CCE700000200010070B51646A5
:102E70000D4604460DE02046FFF70EFF08B1012085
:102E800070BD681C05D0FEF75FFC801BA84207D808
:102E900035B120684069C0434007ECD4002070BDC4
:102EA000002044F8300F20216173A073216941F0A4
:102EB000200121612073E2E72DE9F0471E4690468C
:102EC0000D460446C1F30747DDF8209008E0701C6A
:102ED00006D0FEF739FCA0EB0900B0420FD876B15E
:102EE0002068012F18D0806925EA00000004000C3A
:102EF00014D000214145EAD00020BDE8F087002031
:102F000044F8300F20216173A073216941F0200142
:102F1000216120730120F0E74069E5E70121E9E73D
:102F20002DE9F0479A4691460E46044600254FF09B
:102F30002008C1F3074725E020684069C0434005E9
:102F400014D42068016841F40071016021686FF4B5
:102F500080604861256384F83D8084F83E50206C91
:102F600040F00400206484F83C501FE0B9F1FF3FBA
:102F700008D0FEF7E9FBA0EB0A0149450CD8B9F1EE
:102F8000000F09D02068012F13D0806926EA0000C5
:102F90000004000C0BD0CFE744F8305F84F80D80BC
:102FA000A573206940F02000206125730120BDE851
:102FB000F0874069EAE72DE9F041002590460E468A
:102FC0000446202717E04069C043C0060CD454F8DB
:102FD000301B6FF01000486144F810596777A577EF
:102FE000206A2062257717E0FEF7AEFBA0EB080011
:102FF000B04208D83EB120684169C9434906E2D4CD
:103000000020BDE8F08144F8305F6773A573206944
:1030100040F02000206125730120F2E770B51646CC
:103020000D4604460DE02046FFF736FE08B10120AC
:1030300070BD681C05D0FEF787FB801BA84207D82F
:1030400035B120684069C0430006ECD4002070BD53
:10305000002044F8300F20216173A073216941F0F2
:10306000200121612073E2E7F0B504460D461646C3
:103070001F4600F019F808B10020F0BD09483222BF
:10308000B0F8221300EB011181E8F000B0F8221330
:10309000491CB1FBF2F302FB1311A0F8221301202B
:1030A000F0BD00005C03002008483222B0F8221373
:1030B000B0F82003491CB1FBF2F302FB131181426B
:1030C00001D1012070470020704700005C03002000
:1030D000304810B5016886B041F0400101600168D8
:1030E00001F040010591016841F040010160016873
:1030F00001F040010591016841F040010160016863
:1031000001F040010591016841F040010160016852
:1031100001F040010591016841F040010160016842
:1031200001F040010591016841F040010160006833
:10313000194C00F0400005904FF400400090012031
:10314000019002900320039069462046FEF720FA82
:103150004FF48040009069462046FEF719FA4FF47C
:103160000050009069462046FEF712FAA014009025
:1031700069462046FEF70CFAE014009069462046A6
:10318000FEF706FA2015009069462046FEF700FA81
:1031900006B010BD30380240001802402DE9FF4152
:1031A000002440480094019402943D490394016036
:1031B00001254FF480310561C0E90114057680F8DE
:1031C00020403949C0E90A140926C661C46080F864
:1031D00030504461FDF7DCFC08B1FDF7C7FB052763
:1031E0000097CDE9015469462E48FDF7C1FB08B1AF
:1031F000FDF7BCFB07240220CDE9004069462948C1
:10320000FDF7B6FB08B1FDF7B1FB08250320CDE9BA
:10321000005069462348FDF7ABFB08B1FDF7A6FB5C
:103220000420CDE9006069461E48FDF7A1FB08B106
:10323000FDF79CFB0A20CDE9000769461948FDF718
:1032400097FB08B1FDF792FB0B2000900620019040
:1032500069461448FDF78CFB08B1FDF787FB0D208C
:10326000CDE9000469460F48FDF782FB08B1FDF780
:103270007DFB0E20CDE9000569460A48FDF778FB85
:1032800008B1FDF773FB0F20CDE90006694605483C
:10329000FDF76EFB002801D0FDF768FBBDE8FF815C
:1032A00000200140BC0100200100000F2DE9FF417A
:1032B000002444480094019402944149039401601D
:1032C00001254FF480310561C0E90114057680F8CD
:1032D00020403D49C0E90A140A26C661C46080F84E
:1032E00030504461FDF754FC08B1FDF73FFB022765
:1032F0000097CDE9015469463248FDF739FB08B122
:10330000FDF734FB0324CDE9004769462D48FDF75E
:103310002FFB08B1FDF72AFB0425CDE900546946CF
:103320002848FDF725FB08B1FDF720FB0524694679
:103330002448CDE90045FDF71BFB08B1FDF716FB5E
:103340000625CDE9005469461E48FDF711FB08B17A
:10335000FDF70CFB072469461A48CDE90045FDF747
:1033600007FB08B1FDF702FB0825CDE900546946CB
:103370001448FDF7FDFA08B1FDF7F8FA092469468B
:103380001048CDE90045FDF7F3FA08B1FDF7EEFA74
:103390000E20CDE9000469460A48FDF7E9FA08B1B4
:1033A000FDF7E4FA0F20CDE9000669460548FDF770
:1033B000DFFA002801D0FDF7D9FABDE8FF8100004F
:1033C00000220140040200200100000F0D4808B552
:1033D000016841F4800101600068002200F480006F
:1033E000009011463820FEF773FD3820FEF762FD8D
:1033F000002211463920FEF76BFDBDE80840392058
:10340000FEF758BD30380240104810B50E49016033
:103410004FF48271416000218160C1604FF40072FD
:103420000161C0E905120822C0E9072141628162F9
:103430000A21C162FFF716F8002803D0BDE810404A
:10344000FDF794BA10BD0000003800400C010020C8
:10345000104810B50E4901604FF48271416000219F
:103460008160C1604FF400720161C0E90512082259
:10347000C0E90721416281620A21C162FEF7F2FFC1
:10348000002803D0BDE81040FDF770BA10BD000061
:10349000003C004064010020FEE770477047F8B52B
:1034A000044640684FF48273984221D1A0684FF4DB
:1034B0008065B0F5004F01D0A8420AD120680668A7
:1034C00026F0400606606068984211D1A068A842C4
:1034D0000ED000920B4600228021204600F090F88A
:1034E000002804D0606D40F0200060650320F8BD26
:1034F00000920B4600220121EFE7000038B5044698
:103500001248134B0068B0FBF3F04FF47A73584342
:1035100000906068B0F5827F0DD10B4600920022CA
:103520008021204600F06CF870B1606D40F0200002
:103530006065032038BD009830B1401E00902068BF
:103540008068C0430006F6D5002038BD2800002062
:1035500000366E0170B50D4C90208106216000F0A0
:1035600095FD002000F092FD002000F08FFD00206E
:1035700000F08CFDFF2000F089FD0502FF2000F027
:1035800085FD4FF480412843216070BD180402403E
:1035900010B586B00020194C8DF804008DF8080095
:1035A0008DF80C009F218DF800008DF810104FF061
:1035B00080402060002204A9012000F077FD01AACC
:1035C0006946012000F072FD02AA6946012000F060
:1035D0006DFD03AA6946012000F068FD4FF48040AC
:1035E00020609DF804009DF80810000440EA0120C6
:1035F0009DF80C1006B0084310BD000018040240EE
:103600002DE9F0411D4617460E460446DDF81880A8
:1036100008E0681C06D0FEF797F8A0EB0800A84267
:103620000BD255B12068806836EA000030D0002007
:10363000B842EED10020BDE8F0812068416821F059
:10364000E00141606068B0F5827F0BD1A068B0F501
:10365000004F02D0B0F5806F04D12068016821F0DE
:1036600040010160A06AB0F5005F09D120680168DF
:1036700021F4005101602068016841F400510160AB
:10368000012084F85100002084F850000320D2E784
:103690000120CDE77047000010B5FEF7B1FB2849C7
:1036A0000120087027490A680523B2FBF3F403FBE5
:1036B00014220AB9244A10700A680A23B2FBF3F4F0
:1036C00003FB14220AB9214A10700A681423B2FBC2
:1036D000F3F403FB14220AB91D4A10700A6832235E
:1036E000B2FBF3F403FB14220AB91A4A10700A68F9
:1036F0006423B2FBF3F403FB14220AB9164A1070D8
:103700000A684FF4FA73B2FBF3F403FB14220AB90C
:10371000124A10700A684FF47A73B2FBF3F403FB99
:1037200014220AB90E4A107009684FF4FA62B1FB0C
:10373000F2F302FB1311002901D10A49087010BDF0
:1037400000000020240000200100002002000020D2
:1037500003000020040000200500002006000020D7
:10376000070000200800002030B593B030216846E3
:10377000FCF75EFD14210CA8FCF75AFD1A48002541
:10378000016841F080510160006800F080501190A4
:103790001648016841F4804101600068022400F489
:1037A0008040119001200090000401908001CDE93B
:1037B0000640082008904FF4A870CDE909040420C1
:1037C0000B906846FEF7A0FC0CA90F2081E83100A1
:1037D0004FF4A0500F90E002109005210CA8FEF7C6
:1037E000A9FB13B030BD000040380240007000401B
:1037F0000548016841F47001016003494FF0006021
:10380000803908607047000088ED00E070470000D4
:103810002DE9F041044600680169E26821F4405155
:10382000114301612169A068E2690843616911439C
:1038300008432168CA6849F20C639A430243CA608C
:1038400020684169A26921F4407111434161E06936
:10385000192764253226B0F5004F354A35492068CE
:103860004FF0000806D0884201D0904236D1FEF7D2
:103870000BFC35E0884201D0904202D1FEF704FCF7
:1038800001E0FEF7F1FB61684A18A0FB070148EB75
:103890000803FCF795FC0146B0FBF5F00201B1FB13
:1038A000F5F06FF01803584301EB800006EBC00001
:1038B000B0FBF5F000F0F80002EB4002B1FBF5F0D0
:1038C000584301EB800006EBC000B0FBF5F000F0C0
:1038D0000700216810448860BDE8F081FEF7C4FB52
:1038E00061688B0F8A00A0FB0701FCF769FC0146A9
:1038F000B0FBF5F06FF01802504301EB800006EBCF
:103900000010B0FBF5F000F0F002B1FBF5F002EBB7
:103910000012B1FBF5F06FF01803584301EB800083
:1039200006EB0010B0FBF5F000F00F00D1E700004F
:1039300000140140001001402DE9F041984617465F
:103940000E460446069D1DE0681C1BD02DB1FDF7F8
:10395000FBFEA0EB0800A84214D92068C16821F43E
:10396000D071C1602068416921F0010141612020CE
:1039700084F8390084F83A00002084F838000320E5
:10398000BDE8F0812068006836EA000004D000201D
:10399000B842D9D00020F3E70120F9E7704770471B
:1039A000FEE700000FB4054B10B503A9044A0298C6
:1039B00000F028F810BC5DF814FB0000CD3E0008B4
:1039C0002C0000200907090E002804DB00F1E0208C
:1039D00080F80014704700F00F0000F1E02080F83C
:1039E000141D704702E008C8121F08C1002AFAD14E
:1039F00070477047002001E001C1121F002AFBD16F
:103A0000704700002DE9FF4F8DB09B460F460446DE
:103A1000002606E025280BD05A460F999047641CD3
:103A2000761C20780028F5D111B03046BDE8F08F23
:103A30000025A8460122984900E0054314F8013FFB
:103A4000203B02FA03F00842F7D120782E2817D144
:103A500014F8010F45F004052A280ED06FF02F024C
:103A60002078A0F1300109290AD808EB880102EB7F
:103A7000410100EB0108641CF2E757F8048B641C59
:103A800020786C280DD004DC4C2812D06A2811D183
:103A900004E074280DD07A280CD10AE045F4001512
:103AA00007E0617845F48015814202D1641C05F578
:103AB0008015641C2278692A45D008DC002AB3D01E
:103AC000582A69D0632A10D0642A08D13BE0702AB2
:103AD00067D0732A13D0752A5CD0782A5CD0104640
:103AE0005A460F999047761CD3E017F8040B8DF8CF
:103AF000000000208DF80100E946012003E057F89E
:103B0000049B4FF0FF3069074FF0000501D40AE035
:103B10006D1C45450DDA8542FADB19F805100029C0
:103B2000F6D106E06D1C8542FCDB19F80510002972
:103B3000F8D12E4404E019F8010B5A460F9990472A
:103B40006D1EF8D2A5E00A200021CDE90801C5F3D9
:103B5000025002280DD001CFC117031E71F10003DE
:103B60000DDA4FF0000CD0EB0C006CEB01012D23B3
:103B700008E0FF1D27F00707F7E80201EDE72B0536
:103B800004D52B238DF8283001233BE0EB0739D0F7
:103B90002023F7E70A2000E010200021CDE90801EA
:103BA00007E01020002145F00405CDE908014FF0A1
:103BB0000808C5F3025002280FD001CF00214FF0B2
:103BC000000A2B071FD5702A0DD0DDE908C38CF041
:103BD000100C5CEA030C0CD015E0FF1D27F0070762
:103BE000F7E80201EBE740228DF828204FF0010AA8
:103BF0000BE050EA010306D030238DF828308DF811
:103C0000292002239A46582A04D024A20DF1200923
:103C10000B9209E026A2F9E7DDE90823FCF7D0FAC8
:103C20000B9B9B5C09F8013D50EA0102F4D1ADEB1E
:103C3000090020300890680701D44FF00108089966
:103C4000884502DDA8EB010000E000208046002549
:103C500006E00AA85A46405D0F9990476D1C761CF5
:103C60005545F6DB04E030205A460F999047761C04
:103C7000B8F10001A8F10108F5DC05E019F8010B25
:103C80005A460F999047761C0899481E08900029BB
:103C9000F4DC641CC5E60000092801003031323331
:103CA0003435363738396162636465660000000078
:103CB0003031323334353637383941424344454662
:103CC0000000000070B50C4D002400BF35F8142032
:103CD00021460AA0FFF766FE641C092CF6DB0C4D9A
:103CE000002400BF35F8142021460AA0FFF75AFE31
:103CF000641C0A2CF6DB70BDA40000204144435F25
:103D00004156475B25645D2C2025640D0A000000A8
:103D1000B60000205F4144435F4156475B25645D28
:103D20002C2025640D0A000070B514480024017889
:103D300001B104701248017801B104701148017892
:103D400001B104701048017801B104700F48017886
:103D500001B104700E48017801B104700D4801787A
:103D600001B104700C48017801B104700B4D287842
:103D7000002802D0FFF7A6FF2C7070BD00000020C5
:103D800001000020020000200300002004000020A9
:103D90000500002006000020070000200800002089
:103DA00030B50446204889B00025016841F0005133
:103DB0000160006800F0005007901B48103801684F
:103DC00041F0010101600068012C00F00100079042
:103DD00020D0202000900320CDE90105694613483A
:103DE000FDF7D6FB1349124808600846FDF706FAAE
:103DF0000220CDE90550012C0ED0022C08D1102252
:103E000005A90C48FDF7D9F910210A48FDF718FA61
:103E100009B030BD1020DDE7002205A90548FDF7F7
:103E2000CCF90021F1E700004038024000000240D8
:103E300000740040A409002010B504462DED048B49
:103E40000846FCF7E1FA9FED181B53EC112BFCF729
:103E50006CFA9FED179B53EC192BFCF7F4F99FEDCF
:103E6000161B53EC112BFCF760FA41EC180B53ECCA
:103E7000192BFCF7EFFA01D89FED118B012C51ECB7
:103E8000180B0BD0FCF7CDFA002203461021BDEC35
:103E9000048BBDE810400C48FDF7C5B9FCF7C1FA2A
:103EA000002203461146F2E70000000000408F4068
:103EB000000000000000B0406666666666660A4064
:103EC0000000000000FEAF40A409002013B54FF42D
:103ED0007A73012269460248FEF736FE00981CBD3F
:103EE000CC00002088B0FDF793FFFFF73DFCFFF703
:103EF000EFF8FFF76BFAFFF751F9FFF7D7F9FCF787
:103F0000B3FCFFF781FAFFF7A3FA00210846FCF79C
:103F100023FC01210020FCF78DFC0120FFF740FF6E
:103F200040F6B8310120FFF787FFFEF779FE2DA09C
:103F3000FFF738FD09222D492D48FCF70BFF2B49CF
:103F40000A2212312B48FCF705FF2BA0FFF72AFDB0
:103F500000240A2001940090029403948DF80440F8
:103F60002046694633220B18401C9A710828FADB58
:103F700008208DF8050023A0FFF714FD25A10822D5
:103F8000D1E90001CDE9060104940594002106A8B9
:103F9000FEF75EFE08B121A000E024A0FFF702FDBD
:103FA0000822002104A8FEF72DFE08B122A000E09F
:103FB00025A0FFF7F7FC04A926A0FFF7F3FCFFF705
:103FC000C9FA85B2FFF7E4FA0446294626A0FFF7AE
:103FD000E9FC214629A0FFF7E5FC00BFFFF7A4FE9E
:103FE000FCE7000031313131310D0A003000002092
:103FF000BC010020040200203232323232320D0A7B
:104000000000000068656C6C6F20776F726C640D47
:104010000A00000068656C6C6F0D0A0077726974A5
:1040200065206572726F720D0A0000007772697404
:1040300065206F6B0D0A0000726561642065727205
:104040006F720D0A0000000072656164206F6B0DD5
:104050000A0000006D6573736167655F7265616476
:104060002025730A000000006465766963655F6956
:10407000642069732025780D0A000000466C617386
:104080006849442025780D0A0000000001B582B07F
:104090004FF47A700090012301AA02A90248FEF7AA
:1040A000DFFB9DF804000EBD6401002038B5144606
:1040B0004FF47A7359B12CB1009303460948FEF7C7
:1040C000CFFB0AE002460748FEF71CFB05E03CB1C7
:1040D000024621460348FEF76DFA08B1002038BDBC
:1040E000012038BD640100202DE9F0478EB00E4656
:1040F00007461C2104A8FCF79BF8002440480094C4
:1041000001940294039441682546491C41603D484E
:104110004FF001090DF12C08EA4687423BD1B6B1B8
:10412000012E35D1434604AA01213648FCF7ABFEE7
:1041300000282DD1069870B10598009007980228A4
:104140000BD08DF804504146524608980CE0434687
:1041500004AA0021E9E70498EFE78DF80490F2E75C
:104160000B5D1619641CB3718442F9D3014602E059
:104170005318491C9D710829FAD300BF8DF805001A
:104180009DE80F00FEF770FF002801D1FCF7EEFB61
:104190000EB0BDE8F0871B4828308742F8D1BEB189
:1041A000012EF5D1434604AA012116482830FCF718
:1041B0006AFE0028ECD1069870B105980090079827
:1041C00002280BD08DF804504146524608980CE066
:1041D000434604AA0021E8E70498EFE78DF804902D
:1041E000F2E70B5D1619641CB3718442F9D30146E2
:1041F00002E05318491C9D710829FAD3BEE700005C
:10420000100000200C0300200006101600061016F7
:104210000000000000000000010203040607080976
:1042200000000000010203044842000800000020D2
:1042300030000000E4390008784200083000002017
:10424000E00D0000F439000800000000000000004C
:10425000000000000000320000000000000000002C
:10426000000000000100000010000000000000003D
:084270000024F400000000002E
:040000050800018965
:00000001FF
